{
  "transactions": [
    {
      "hash": "0x2d546f689230917dd3271380a22e73e24cec0f444cbf49cae8b32bcc7e219516",
      "transactionType": "CALL",
      "contractName": null,
      "contractAddress": "0x89e60cf1dc22f118eddb1f6cc0c6edb894854995",
      "function": "mintNft(string)",
      "arguments": [
        "\"ipfs://bafybeig37ioir76s7mg5oobetncojcm3c3hxasyd4rvid4jqhy4gkaheg4/?filename=0-PUG.json\""
      ],
      "transaction": {
        "from": "0xc7ea4854eb3be50022ed03aefb28dc2e60006c84",
        "to": "0x89e60cf1dc22f118eddb1f6cc0c6edb894854995",
        "gas": "0x3d623",
        "value": "0x0",
        "input": "0xda86f4a900000000000000000000000000000000000000000000000000000000000000200000000000000000000000000000000000000000000000000000000000000057697066733a2f2f62616679626569673337696f6972373673376d67356f6f6265746e636f6a636d3363336878617379643472766964346a71687934676b61686567342f3f66696c656e616d653d302d5055472e6a736f6e000000000000000000",
        "nonce": "0x6",
        "chainId": "0xaa36a7"
      },
      "additionalContracts": [],
      "isFixedGasLimit": false
    }
  ],
  "receipts": [
    {
      "status": "0x1",
      "cumulativeGasUsed": "0x901f28",
      "logs": [
        {
          "address": "0x89e60cf1dc22f118eddb1f6cc0c6edb894854995",
          "topics": [
            "0xddf252ad1be2c89b69c2b068fc378daa952ba7f163c4a11628f55a4df523b3ef",
            "0x0000000000000000000000000000000000000000000000000000000000000000",
            "0x000000000000000000000000c7ea4854eb3be50022ed03aefb28dc2e60006c84",
            "0x0000000000000000000000000000000000000000000000000000000000000000"
          ],
          "data": "0x",
          "blockHash": "0xef018e0242fc74d942a56ef36caad8d00c2fd68121b14edfbbb287b9d9a0d493",
          "blockNumber": "0x5ad81d",
          "transactionHash": "0x2d546f689230917dd3271380a22e73e24cec0f444cbf49cae8b32bcc7e219516",
          "transactionIndex": "0x28",
          "logIndex": "0x70",
          "removed": false
        }
      ],
      "logsBloom": "0x00000000000000000000000000000000000000000000000000000000001000000000000000000000000000000000000000000000000000000000000000000000000000000000000000000008000000000000000000000000080000000000000000000000020000000000000000000800000000000000000000000010000000000000000000000000000000000000000000000000000000000000000000000000000000000000000000000000000000000000048000000000000000000000000000000002000000000000000000000000000000000000000000000000000020000000000000008000004000000000000000000000000000000000000000000000",
      "type": "0x0",
      "transactionHash": "0x2d546f689230917dd3271380a22e73e24cec0f444cbf49cae8b32bcc7e219516",
      "transactionIndex": "0x28",
      "blockHash": "0xef018e0242fc74d942a56ef36caad8d00c2fd68121b14edfbbb287b9d9a0d493",
      "blockNumber": "0x5ad81d",
      "gasUsed": "0x2c70e",
      "effectiveGasPrice": "0xd5ad97a4",
      "from": "0xc7ea4854eb3be50022ed03aefb28dc2e60006c84",
      "to": "0x89e60cf1dc22f118eddb1f6cc0c6edb894854995",
      "contractAddress": null
    }
  ],
  "libraries": [],
  "pending": [],
  "returns": {},
  "timestamp": 1716367385,
  "chain": 11155111,
  "commit": "d0a075c"
}